{
  "_format": "hh-sol-artifact-1",
  "contractName": "ModuleRegistry",
  "sourceName": "contracts/registries/ModuleRegistry.sol",
  "abi": [
    {
      "inputs": [],
      "name": "ModuleRegistry__ModuleAddressNotContract",
      "type": "error"
    },
    {
      "inputs": [],
      "name": "ModuleRegistry__ModuleAddressZeroAddress",
      "type": "error"
    },
    {
      "inputs": [],
      "name": "ModuleRegistry__ModuleAlreadyRegistered",
      "type": "error"
    },
    {
      "inputs": [],
      "name": "ModuleRegistry__ModuleNotRegistered",
      "type": "error"
    },
    {
      "inputs": [],
      "name": "ModuleRegistry__NameAlreadyRegistered",
      "type": "error"
    },
    {
      "inputs": [],
      "name": "ModuleRegistry__NameDoesNotMatch",
      "type": "error"
    },
    {
      "inputs": [],
      "name": "ModuleRegistry__NameEmptyString",
      "type": "error"
    },
    {
      "anonymous": false,
      "inputs": [
        {
          "indexed": true,
          "internalType": "string",
          "name": "name",
          "type": "string"
        },
        {
          "indexed": true,
          "internalType": "address",
          "name": "module",
          "type": "address"
        }
      ],
      "name": "ModuleAdded",
      "type": "event"
    },
    {
      "anonymous": false,
      "inputs": [
        {
          "indexed": true,
          "internalType": "string",
          "name": "name",
          "type": "string"
        },
        {
          "indexed": true,
          "internalType": "address",
          "name": "module",
          "type": "address"
        }
      ],
      "name": "ModuleRemoved",
      "type": "event"
    },
    {
      "inputs": [
        {
          "internalType": "address",
          "name": "",
          "type": "address"
        }
      ],
      "name": "_isModule",
      "outputs": [
        {
          "internalType": "bool",
          "name": "",
          "type": "bool"
        }
      ],
      "stateMutability": "view",
      "type": "function"
    },
    {
      "inputs": [
        {
          "internalType": "string",
          "name": "",
          "type": "string"
        }
      ],
      "name": "_modules",
      "outputs": [
        {
          "internalType": "address",
          "name": "",
          "type": "address"
        }
      ],
      "stateMutability": "view",
      "type": "function"
    },
    {
      "inputs": [
        {
          "internalType": "string",
          "name": "name",
          "type": "string"
        }
      ],
      "name": "getModule",
      "outputs": [
        {
          "internalType": "address",
          "name": "",
          "type": "address"
        }
      ],
      "stateMutability": "view",
      "type": "function"
    },
    {
      "inputs": [
        {
          "internalType": "address",
          "name": "moduleAddress",
          "type": "address"
        }
      ],
      "name": "isRegistered",
      "outputs": [
        {
          "internalType": "bool",
          "name": "",
          "type": "bool"
        }
      ],
      "stateMutability": "view",
      "type": "function"
    },
    {
      "inputs": [
        {
          "internalType": "string",
          "name": "name",
          "type": "string"
        },
        {
          "internalType": "address",
          "name": "moduleAddress",
          "type": "address"
        }
      ],
      "name": "registerModule",
      "outputs": [],
      "stateMutability": "nonpayable",
      "type": "function"
    },
    {
      "inputs": [
        {
          "internalType": "string",
          "name": "name",
          "type": "string"
        }
      ],
      "name": "removeModule",
      "outputs": [],
      "stateMutability": "nonpayable",
      "type": "function"
    }
  ],
  "bytecode": "0x608060405234801561000f575f80fd5b5061085f8061001d5f395ff3fe608060405234801561000f575f80fd5b506004361061006f575f3560e01c8063c3c5a5471161004d578063c3c5a547146100cb578063de272a7f14610106578063fdc9761614610128575f80fd5b806308f523d81461007357806353e881cc146100a3578063639cc67d146100b8575b5f80fd5b6100866100813660046106c1565b61015b565b6040516001600160a01b0390911681526020015b60405180910390f35b6100b66100b13660046106c1565b61018a565b005b6100b66100c6366004610716565b6102fa565b6100f66100d9366004610761565b6001600160a01b03165f9081526001602052604090205460ff1690565b604051901515815260200161009a565b6100f6610114366004610761565b60016020525f908152604090205460ff1681565b6100866101363660046106c1565b80516020818301810180515f825292820191909301209152546001600160a01b031681565b5f808260405161016b919061079c565b908152604051908190036020019020546001600160a01b031692915050565b80515f036101c4576040517fec78648500000000000000000000000000000000000000000000000000000000815260040160405180910390fd5b5f6001600160a01b03165f826040516101dd919061079c565b908152604051908190036020019020546001600160a01b03160361022d576040517ff4b4395b00000000000000000000000000000000000000000000000000000000815260040160405180910390fd5b5f808260405161023d919061079c565b908152604051908190036020018120546001600160a01b031691505f9061026590849061079c565b90815260408051918290036020908101832080547fffffffffffffffffffffffff00000000000000000000000000000000000000001690556001600160a01b0384165f8181526001909252919020805460ff19169055906102c790849061079c565b604051908190038120907fc7c2b7fdd6075949e44c7daeedba58fd5c0449ad0f224c27fd4a4135d7c919da905f90a35050565b6001600160a01b03811661033a576040517fc908de7600000000000000000000000000000000000000000000000000000000815260040160405180910390fd5b806001600160a01b03163b5f0361037d576040517f15e1d0cb00000000000000000000000000000000000000000000000000000000815260040160405180910390fd5b6001600160a01b0381165f9081526001602052604090205460ff16156103cf576040517f62ab4ebb00000000000000000000000000000000000000000000000000000000815260040160405180910390fd5b81515f03610409576040517fec78648500000000000000000000000000000000000000000000000000000000815260040160405180910390fd5b5f6001600160a01b03165f83604051610422919061079c565b908152604051908190036020019020546001600160a01b031614610472576040517fb9943cba00000000000000000000000000000000000000000000000000000000815260040160405180910390fd5b6104df82826001600160a01b03166306fdde036040518163ffffffff1660e01b81526004015f604051808303815f875af11580156104b2573d5f803e3d5ffd5b505050506040513d5f823e601f3d908101601f191682016040526104d991908101906107b7565b906105c4565b610515576040517fd614bc1300000000000000000000000000000000000000000000000000000000815260040160405180910390fd5b805f83604051610525919061079c565b908152604080516020928190038301812080547fffffffffffffffffffffffff0000000000000000000000000000000000000000166001600160a01b039586161790559284165f81815260019384905291909120805460ff19169092179091559061059190849061079c565b604051908190038120907fb857c29f328a6af5a05e6da681a34d36fe28b9d9b5e333c5668d1448b2431ed0905f90a35050565b5f815183511480156105e3575081805190602001208380519060200120145b9392505050565b7f4e487b71000000000000000000000000000000000000000000000000000000005f52604160045260245ffd5b604051601f8201601f1916810167ffffffffffffffff81118282101715610640576106406105ea565b604052919050565b5f67ffffffffffffffff821115610661576106616105ea565b50601f01601f191660200190565b5f82601f83011261067e575f80fd5b813561069161068c82610648565b610617565b8181528460208386010111156106a5575f80fd5b816020850160208301375f918101602001919091529392505050565b5f602082840312156106d1575f80fd5b813567ffffffffffffffff8111156106e7575f80fd5b6106f38482850161066f565b949350505050565b80356001600160a01b0381168114610711575f80fd5b919050565b5f8060408385031215610727575f80fd5b823567ffffffffffffffff81111561073d575f80fd5b6107498582860161066f565b925050610758602084016106fb565b90509250929050565b5f60208284031215610771575f80fd5b6105e3826106fb565b5f5b8381101561079457818101518382015260200161077c565b50505f910152565b5f82516107ad81846020870161077a565b9190910192915050565b5f602082840312156107c7575f80fd5b815167ffffffffffffffff8111156107dd575f80fd5b8201601f810184136107ed575f80fd5b80516107fb61068c82610648565b81815285602083850101111561080f575f80fd5b61082082602083016020860161077a565b9594505050505056fea26469706673582212208b679a4d563cd2b33f2341a6fd85b3719eadb3164e274d62e9d785e0b605b39464736f6c63430008140033",
  "linkReferences": {},
  "deployedLinkReferences": {}
}